{
  "_format": "hh-sol-artifact-1",
  "contractName": "AtomicSettlement",
  "sourceName": "contracts/AtomicSettlement.sol",
  "abi": [
    {
      "inputs": [
        {
          "internalType": "address",
          "name": "_inrToken",
          "type": "address"
        }
      ],
      "stateMutability": "nonpayable",
      "type": "constructor"
    },
    {
      "inputs": [
        {
          "internalType": "address",
          "name": "owner",
          "type": "address"
        }
      ],
      "name": "OwnableInvalidOwner",
      "type": "error"
    },
    {
      "inputs": [
        {
          "internalType": "address",
          "name": "account",
          "type": "address"
        }
      ],
      "name": "OwnableUnauthorizedAccount",
      "type": "error"
    },
    {
      "anonymous": false,
      "inputs": [
        {
          "indexed": true,
          "internalType": "address",
          "name": "seller",
          "type": "address"
        },
        {
          "indexed": true,
          "internalType": "address",
          "name": "buyer",
          "type": "address"
        },
        {
          "indexed": false,
          "internalType": "address",
          "name": "security",
          "type": "address"
        },
        {
          "indexed": false,
          "internalType": "uint256",
          "name": "amount",
          "type": "uint256"
        },
        {
          "indexed": false,
          "internalType": "uint256",
          "name": "price",
          "type": "uint256"
        }
      ],
      "name": "DvPSettled",
      "type": "event"
    },
    {
      "anonymous": false,
      "inputs": [
        {
          "indexed": true,
          "internalType": "address",
          "name": "previousOwner",
          "type": "address"
        },
        {
          "indexed": true,
          "internalType": "address",
          "name": "newOwner",
          "type": "address"
        }
      ],
      "name": "OwnershipTransferred",
      "type": "event"
    },
    {
      "inputs": [
        {
          "internalType": "address",
          "name": "_security",
          "type": "address"
        }
      ],
      "name": "approveSecurity",
      "outputs": [],
      "stateMutability": "nonpayable",
      "type": "function"
    },
    {
      "inputs": [],
      "name": "inrToken",
      "outputs": [
        {
          "internalType": "address",
          "name": "",
          "type": "address"
        }
      ],
      "stateMutability": "view",
      "type": "function"
    },
    {
      "inputs": [
        {
          "internalType": "address",
          "name": "",
          "type": "address"
        }
      ],
      "name": "isApprovedSecurity",
      "outputs": [
        {
          "internalType": "bool",
          "name": "",
          "type": "bool"
        }
      ],
      "stateMutability": "view",
      "type": "function"
    },
    {
      "inputs": [],
      "name": "owner",
      "outputs": [
        {
          "internalType": "address",
          "name": "",
          "type": "address"
        }
      ],
      "stateMutability": "view",
      "type": "function"
    },
    {
      "inputs": [],
      "name": "renounceOwnership",
      "outputs": [],
      "stateMutability": "nonpayable",
      "type": "function"
    },
    {
      "inputs": [
        {
          "internalType": "address",
          "name": "seller",
          "type": "address"
        },
        {
          "internalType": "address",
          "name": "buyer",
          "type": "address"
        },
        {
          "internalType": "address",
          "name": "security",
          "type": "address"
        },
        {
          "internalType": "uint256",
          "name": "amount",
          "type": "uint256"
        },
        {
          "internalType": "uint256",
          "name": "totalPrice",
          "type": "uint256"
        }
      ],
      "name": "settle",
      "outputs": [],
      "stateMutability": "nonpayable",
      "type": "function"
    },
    {
      "inputs": [
        {
          "internalType": "address",
          "name": "newOwner",
          "type": "address"
        }
      ],
      "name": "transferOwnership",
      "outputs": [],
      "stateMutability": "nonpayable",
      "type": "function"
    }
  ],
  "bytecode": "0x60806040523480156200001157600080fd5b5060405162000e2e38038062000e2e833981810160405281019062000037919062000235565b33600073ffffffffffffffffffffffffffffffffffffffff168173ffffffffffffffffffffffffffffffffffffffff1603620000ad5760006040517f1e4fbdf7000000000000000000000000000000000000000000000000000000008152600401620000a4919062000278565b60405180910390fd5b620000be816200010760201b60201c565b5080600260006101000a81548173ffffffffffffffffffffffffffffffffffffffff021916908373ffffffffffffffffffffffffffffffffffffffff1602179055505062000295565b60008060009054906101000a900473ffffffffffffffffffffffffffffffffffffffff169050816000806101000a81548173ffffffffffffffffffffffffffffffffffffffff021916908373ffffffffffffffffffffffffffffffffffffffff1602179055508173ffffffffffffffffffffffffffffffffffffffff168173ffffffffffffffffffffffffffffffffffffffff167f8be0079c531659141344cd1fd0a4f28419497f9722a3daafe3b4186f6b6457e060405160405180910390a35050565b600080fd5b600073ffffffffffffffffffffffffffffffffffffffff82169050919050565b6000620001fd82620001d0565b9050919050565b6200020f81620001f0565b81146200021b57600080fd5b50565b6000815190506200022f8162000204565b92915050565b6000602082840312156200024e576200024d620001cb565b5b60006200025e848285016200021e565b91505092915050565b6200027281620001f0565b82525050565b60006020820190506200028f600083018462000267565b92915050565b610b8980620002a56000396000f3fe608060405234801561001057600080fd5b506004361061007d5760003560e01c8063c48bcb8e1161005b578063c48bcb8e146100c6578063e85017d6146100f6578063f2fde38b14610114578063f434226d146101305761007d565b8063715018a6146100825780638da5cb5b1461008c578063bd98b5d0146100aa575b600080fd5b61008a61014c565b005b610094610160565b6040516100a1919061075c565b60405180910390f35b6100c460048036038101906100bf91906107de565b610189565b005b6100e060048036038101906100db9190610859565b61049a565b6040516100ed91906108a1565b60405180910390f35b6100fe6104ba565b60405161010b919061075c565b60405180910390f35b61012e60048036038101906101299190610859565b6104e0565b005b61014a60048036038101906101459190610859565b610566565b005b6101546105c8565b61015e600061064f565b565b60008060009054906101000a900473ffffffffffffffffffffffffffffffffffffffff16905090565b3373ffffffffffffffffffffffffffffffffffffffff166101a8610160565b73ffffffffffffffffffffffffffffffffffffffff16146101fe576040517f08c379a00000000000000000000000000000000000000000000000000000000081526004016101f590610919565b60405180910390fd5b600160008473ffffffffffffffffffffffffffffffffffffffff1673ffffffffffffffffffffffffffffffffffffffff16815260200190815260200160002060009054906101000a900460ff1661028a576040517f08c379a000000000000000000000000000000000000000000000000000000000815260040161028190610985565b60405180910390fd5b8273ffffffffffffffffffffffffffffffffffffffff166323b872dd8686856040518463ffffffff1660e01b81526004016102c7939291906109b4565b6020604051808303816000875af11580156102e6573d6000803e3d6000fd5b505050506040513d601f19601f8201168201806040525081019061030a9190610a17565b610349576040517f08c379a000000000000000000000000000000000000000000000000000000000815260040161034090610a90565b60405180910390fd5b600260009054906101000a900473ffffffffffffffffffffffffffffffffffffffff1673ffffffffffffffffffffffffffffffffffffffff166323b872dd8587846040518463ffffffff1660e01b81526004016103a8939291906109b4565b6020604051808303816000875af11580156103c7573d6000803e3d6000fd5b505050506040513d601f19601f820116820180604052508101906103eb9190610a17565b61042a576040517f08c379a000000000000000000000000000000000000000000000000000000000815260040161042190610afc565b60405180910390fd5b8373ffffffffffffffffffffffffffffffffffffffff168573ffffffffffffffffffffffffffffffffffffffff167f54c7de8fde82e0d313529f8b79928e2b6df2531e998eab8e83087e1f424494a985858560405161048b93929190610b1c565b60405180910390a35050505050565b60016020528060005260406000206000915054906101000a900460ff1681565b600260009054906101000a900473ffffffffffffffffffffffffffffffffffffffff1681565b6104e86105c8565b600073ffffffffffffffffffffffffffffffffffffffff168173ffffffffffffffffffffffffffffffffffffffff160361055a5760006040517f1e4fbdf7000000000000000000000000000000000000000000000000000000008152600401610551919061075c565b60405180910390fd5b6105638161064f565b50565b61056e6105c8565b60018060008373ffffffffffffffffffffffffffffffffffffffff1673ffffffffffffffffffffffffffffffffffffffff16815260200190815260200160002060006101000a81548160ff02191690831515021790555050565b6105d0610713565b73ffffffffffffffffffffffffffffffffffffffff166105ee610160565b73ffffffffffffffffffffffffffffffffffffffff161461064d57610611610713565b6040517f118cdaa7000000000000000000000000000000000000000000000000000000008152600401610644919061075c565b60405180910390fd5b565b60008060009054906101000a900473ffffffffffffffffffffffffffffffffffffffff169050816000806101000a81548173ffffffffffffffffffffffffffffffffffffffff021916908373ffffffffffffffffffffffffffffffffffffffff1602179055508173ffffffffffffffffffffffffffffffffffffffff168173ffffffffffffffffffffffffffffffffffffffff167f8be0079c531659141344cd1fd0a4f28419497f9722a3daafe3b4186f6b6457e060405160405180910390a35050565b600033905090565b600073ffffffffffffffffffffffffffffffffffffffff82169050919050565b60006107468261071b565b9050919050565b6107568161073b565b82525050565b6000602082019050610771600083018461074d565b92915050565b600080fd5b6107858161073b565b811461079057600080fd5b50565b6000813590506107a28161077c565b92915050565b6000819050919050565b6107bb816107a8565b81146107c657600080fd5b50565b6000813590506107d8816107b2565b92915050565b600080600080600060a086880312156107fa576107f9610777565b5b600061080888828901610793565b955050602061081988828901610793565b945050604061082a88828901610793565b935050606061083b888289016107c9565b925050608061084c888289016107c9565b9150509295509295909350565b60006020828403121561086f5761086e610777565b5b600061087d84828501610793565b91505092915050565b60008115159050919050565b61089b81610886565b82525050565b60006020820190506108b66000830184610892565b92915050565b600082825260208201905092915050565b7f556e617574686f72697a65640000000000000000000000000000000000000000600082015250565b6000610903600c836108bc565b915061090e826108cd565b602082019050919050565b60006020820190508181036000830152610932816108f6565b9050919050565b7f4e6f7420616e20617070726f7665642073656375726974790000000000000000600082015250565b600061096f6018836108bc565b915061097a82610939565b602082019050919050565b6000602082019050818103600083015261099e81610962565b9050919050565b6109ae816107a8565b82525050565b60006060820190506109c9600083018661074d565b6109d6602083018561074d565b6109e360408301846109a5565b949350505050565b6109f481610886565b81146109ff57600080fd5b50565b600081519050610a11816109eb565b92915050565b600060208284031215610a2d57610a2c610777565b5b6000610a3b84828501610a02565b91505092915050565b7f5365637572697479207472616e73666572206661696c65640000000000000000600082015250565b6000610a7a6018836108bc565b9150610a8582610a44565b602082019050919050565b60006020820190508181036000830152610aa981610a6d565b9050919050565b7f494e52207472616e73666572206661696c656400000000000000000000000000600082015250565b6000610ae66013836108bc565b9150610af182610ab0565b602082019050919050565b60006020820190508181036000830152610b1581610ad9565b9050919050565b6000606082019050610b31600083018661074d565b610b3e60208301856109a5565b610b4b60408301846109a5565b94935050505056fea2646970667358221220b54968b6dc0470ac51aed4748c3ed6f8d252d451f80e338b51736d1f4e95a8ca64736f6c63430008140033",
  "linkReferences": {},
  "deployedLinkReferences": {}
}