{
  "_format": "hh-sol-artifact-1",
  "contractName": "SecurityToken",
  "sourceName": "contracts/SecurityToken.sol",
  "abi": [
    {
      "inputs": [
        {
          "internalType": "string",
          "name": "name",
          "type": "string"
        },
        {
          "internalType": "string",
          "name": "symbol",
          "type": "string"
        },
        {
          "internalType": "string",
          "name": "isin_",
          "type": "string"
        }
      ],
      "stateMutability": "nonpayable",
      "type": "constructor"
    },
    {
      "inputs": [
        {
          "internalType": "address",
          "name": "spender",
          "type": "address"
        },
        {
          "internalType": "uint256",
          "name": "allowance",
          "type": "uint256"
        },
        {
          "internalType": "uint256",
          "name": "needed",
          "type": "uint256"
        }
      ],
      "name": "ERC20InsufficientAllowance",
      "type": "error"
    },
    {
      "inputs": [
        {
          "internalType": "address",
          "name": "sender",
          "type": "address"
        },
        {
          "internalType": "uint256",
          "name": "balance",
          "type": "uint256"
        },
        {
          "internalType": "uint256",
          "name": "needed",
          "type": "uint256"
        }
      ],
      "name": "ERC20InsufficientBalance",
      "type": "error"
    },
    {
      "inputs": [
        {
          "internalType": "address",
          "name": "approver",
          "type": "address"
        }
      ],
      "name": "ERC20InvalidApprover",
      "type": "error"
    },
    {
      "inputs": [
        {
          "internalType": "address",
          "name": "receiver",
          "type": "address"
        }
      ],
      "name": "ERC20InvalidReceiver",
      "type": "error"
    },
    {
      "inputs": [
        {
          "internalType": "address",
          "name": "sender",
          "type": "address"
        }
      ],
      "name": "ERC20InvalidSender",
      "type": "error"
    },
    {
      "inputs": [
        {
          "internalType": "address",
          "name": "spender",
          "type": "address"
        }
      ],
      "name": "ERC20InvalidSpender",
      "type": "error"
    },
    {
      "inputs": [
        {
          "internalType": "address",
          "name": "owner",
          "type": "address"
        }
      ],
      "name": "OwnableInvalidOwner",
      "type": "error"
    },
    {
      "inputs": [
        {
          "internalType": "address",
          "name": "account",
          "type": "address"
        }
      ],
      "name": "OwnableUnauthorizedAccount",
      "type": "error"
    },
    {
      "anonymous": false,
      "inputs": [
        {
          "indexed": true,
          "internalType": "address",
          "name": "owner",
          "type": "address"
        },
        {
          "indexed": true,
          "internalType": "address",
          "name": "spender",
          "type": "address"
        },
        {
          "indexed": false,
          "internalType": "uint256",
          "name": "value",
          "type": "uint256"
        }
      ],
      "name": "Approval",
      "type": "event"
    },
    {
      "anonymous": false,
      "inputs": [
        {
          "indexed": true,
          "internalType": "address",
          "name": "previousOwner",
          "type": "address"
        },
        {
          "indexed": true,
          "internalType": "address",
          "name": "newOwner",
          "type": "address"
        }
      ],
      "name": "OwnershipTransferred",
      "type": "event"
    },
    {
      "anonymous": false,
      "inputs": [
        {
          "indexed": true,
          "internalType": "address",
          "name": "from",
          "type": "address"
        },
        {
          "indexed": true,
          "internalType": "address",
          "name": "to",
          "type": "address"
        },
        {
          "indexed": false,
          "internalType": "uint256",
          "name": "value",
          "type": "uint256"
        }
      ],
      "name": "Transfer",
      "type": "event"
    },
    {
      "inputs": [
        {
          "internalType": "address",
          "name": "owner",
          "type": "address"
        },
        {
          "internalType": "address",
          "name": "spender",
          "type": "address"
        }
      ],
      "name": "allowance",
      "outputs": [
        {
          "internalType": "uint256",
          "name": "",
          "type": "uint256"
        }
      ],
      "stateMutability": "view",
      "type": "function"
    },
    {
      "inputs": [
        {
          "internalType": "address",
          "name": "spender",
          "type": "address"
        },
        {
          "internalType": "uint256",
          "name": "value",
          "type": "uint256"
        }
      ],
      "name": "approve",
      "outputs": [
        {
          "internalType": "bool",
          "name": "",
          "type": "bool"
        }
      ],
      "stateMutability": "nonpayable",
      "type": "function"
    },
    {
      "inputs": [
        {
          "internalType": "address",
          "name": "account",
          "type": "address"
        }
      ],
      "name": "balanceOf",
      "outputs": [
        {
          "internalType": "uint256",
          "name": "",
          "type": "uint256"
        }
      ],
      "stateMutability": "view",
      "type": "function"
    },
    {
      "inputs": [],
      "name": "decimals",
      "outputs": [
        {
          "internalType": "uint8",
          "name": "",
          "type": "uint8"
        }
      ],
      "stateMutability": "view",
      "type": "function"
    },
    {
      "inputs": [],
      "name": "isin",
      "outputs": [
        {
          "internalType": "string",
          "name": "",
          "type": "string"
        }
      ],
      "stateMutability": "view",
      "type": "function"
    },
    {
      "inputs": [
        {
          "internalType": "address",
          "name": "to",
          "type": "address"
        },
        {
          "internalType": "uint256",
          "name": "amount",
          "type": "uint256"
        }
      ],
      "name": "mint",
      "outputs": [],
      "stateMutability": "nonpayable",
      "type": "function"
    },
    {
      "inputs": [],
      "name": "name",
      "outputs": [
        {
          "internalType": "string",
          "name": "",
          "type": "string"
        }
      ],
      "stateMutability": "view",
      "type": "function"
    },
    {
      "inputs": [],
      "name": "owner",
      "outputs": [
        {
          "internalType": "address",
          "name": "",
          "type": "address"
        }
      ],
      "stateMutability": "view",
      "type": "function"
    },
    {
      "inputs": [],
      "name": "renounceOwnership",
      "outputs": [],
      "stateMutability": "nonpayable",
      "type": "function"
    },
    {
      "inputs": [],
      "name": "symbol",
      "outputs": [
        {
          "internalType": "string",
          "name": "",
          "type": "string"
        }
      ],
      "stateMutability": "view",
      "type": "function"
    },
    {
      "inputs": [],
      "name": "totalSupply",
      "outputs": [
        {
          "internalType": "uint256",
          "name": "",
          "type": "uint256"
        }
      ],
      "stateMutability": "view",
      "type": "function"
    },
    {
      "inputs": [
        {
          "internalType": "address",
          "name": "to",
          "type": "address"
        },
        {
          "internalType": "uint256",
          "name": "value",
          "type": "uint256"
        }
      ],
      "name": "transfer",
      "outputs": [
        {
          "internalType": "bool",
          "name": "",
          "type": "bool"
        }
      ],
      "stateMutability": "nonpayable",
      "type": "function"
    },
    {
      "inputs": [
        {
          "internalType": "address",
          "name": "from",
          "type": "address"
        },
        {
          "internalType": "address",
          "name": "to",
          "type": "address"
        },
        {
          "internalType": "uint256",
          "name": "value",
          "type": "uint256"
        }
      ],
      "name": "transferFrom",
      "outputs": [
        {
          "internalType": "bool",
          "name": "",
          "type": "bool"
        }
      ],
      "stateMutability": "nonpayable",
      "type": "function"
    },
    {
      "inputs": [
        {
          "internalType": "address",
          "name": "newOwner",
          "type": "address"
        }
      ],
      "name": "transferOwnership",
      "outputs": [],
      "stateMutability": "nonpayable",
      "type": "function"
    }
  ],
  "bytecode": "0x60806040523480156200001157600080fd5b5060405162001a1e38038062001a1e83398181016040528101906200003791906200035b565b33838381600390816200004b91906200065f565b5080600490816200005d91906200065f565b505050600073ffffffffffffffffffffffffffffffffffffffff168173ffffffffffffffffffffffffffffffffffffffff1603620000d55760006040517f1e4fbdf7000000000000000000000000000000000000000000000000000000008152600401620000cc91906200078b565b60405180910390fd5b620000e6816200010260201b60201c565b508060069081620000f891906200065f565b50505050620007a8565b6000600560009054906101000a900473ffffffffffffffffffffffffffffffffffffffff16905081600560006101000a81548173ffffffffffffffffffffffffffffffffffffffff021916908373ffffffffffffffffffffffffffffffffffffffff1602179055508173ffffffffffffffffffffffffffffffffffffffff168173ffffffffffffffffffffffffffffffffffffffff167f8be0079c531659141344cd1fd0a4f28419497f9722a3daafe3b4186f6b6457e060405160405180910390a35050565b6000604051905090565b600080fd5b600080fd5b600080fd5b600080fd5b6000601f19601f8301169050919050565b7f4e487b7100000000000000000000000000000000000000000000000000000000600052604160045260246000fd5b6200023182620001e6565b810181811067ffffffffffffffff82111715620002535762000252620001f7565b5b80604052505050565b600062000268620001c8565b905062000276828262000226565b919050565b600067ffffffffffffffff821115620002995762000298620001f7565b5b620002a482620001e6565b9050602081019050919050565b60005b83811015620002d1578082015181840152602081019050620002b4565b60008484015250505050565b6000620002f4620002ee846200027b565b6200025c565b905082815260208101848484011115620003135762000312620001e1565b5b62000320848285620002b1565b509392505050565b600082601f83011262000340576200033f620001dc565b5b815162000352848260208601620002dd565b91505092915050565b600080600060608486031215620003775762000376620001d2565b5b600084015167ffffffffffffffff811115620003985762000397620001d7565b5b620003a68682870162000328565b935050602084015167ffffffffffffffff811115620003ca57620003c9620001d7565b5b620003d88682870162000328565b925050604084015167ffffffffffffffff811115620003fc57620003fb620001d7565b5b6200040a8682870162000328565b9150509250925092565b600081519050919050565b7f4e487b7100000000000000000000000000000000000000000000000000000000600052602260045260246000fd5b600060028204905060018216806200046757607f821691505b6020821081036200047d576200047c6200041f565b5b50919050565b60008190508160005260206000209050919050565b60006020601f8301049050919050565b600082821b905092915050565b600060088302620004e77fffffffffffffffffffffffffffffffffffffffffffffffffffffffffffffffff82620004a8565b620004f38683620004a8565b95508019841693508086168417925050509392505050565b6000819050919050565b6000819050919050565b6000620005406200053a62000534846200050b565b62000515565b6200050b565b9050919050565b6000819050919050565b6200055c836200051f565b620005746200056b8262000547565b848454620004b5565b825550505050565b600090565b6200058b6200057c565b6200059881848462000551565b505050565b5b81811015620005c057620005b460008262000581565b6001810190506200059e565b5050565b601f8211156200060f57620005d98162000483565b620005e48462000498565b81016020851015620005f4578190505b6200060c620006038562000498565b8301826200059d565b50505b505050565b600082821c905092915050565b6000620006346000198460080262000614565b1980831691505092915050565b60006200064f838362000621565b9150826002028217905092915050565b6200066a8262000414565b67ffffffffffffffff811115620006865762000685620001f7565b5b6200069282546200044e565b6200069f828285620005c4565b600060209050601f831160018114620006d75760008415620006c2578287015190505b620006ce858262000641565b8655506200073e565b601f198416620006e78662000483565b60005b828110156200071157848901518255600182019150602085019450602081019050620006ea565b868310156200073157848901516200072d601f89168262000621565b8355505b6001600288020188555050505b505050505050565b600073ffffffffffffffffffffffffffffffffffffffff82169050919050565b6000620007738262000746565b9050919050565b620007858162000766565b82525050565b6000602082019050620007a260008301846200077a565b92915050565b61126680620007b86000396000f3fe608060405234801561001057600080fd5b50600436106100ea5760003560e01c8063715018a61161008c57806395d89b411161006657806395d89b411461023b578063a9059cbb14610259578063dd62ed3e14610289578063f2fde38b146102b9576100ea565b8063715018a6146101f557806382d5a60d146101ff5780638da5cb5b1461021d576100ea565b806323b872dd116100c857806323b872dd1461015b578063313ce5671461018b57806340c10f19146101a957806370a08231146101c5576100ea565b806306fdde03146100ef578063095ea7b31461010d57806318160ddd1461013d575b600080fd5b6100f76102d5565b6040516101049190610eba565b60405180910390f35b61012760048036038101906101229190610f75565b610367565b6040516101349190610fd0565b60405180910390f35b61014561038a565b6040516101529190610ffa565b60405180910390f35b61017560048036038101906101709190611015565b610394565b6040516101829190610fd0565b60405180910390f35b6101936103c3565b6040516101a09190611084565b60405180910390f35b6101c360048036038101906101be9190610f75565b6103cc565b005b6101df60048036038101906101da919061109f565b6103e2565b6040516101ec9190610ffa565b60405180910390f35b6101fd61042a565b005b61020761043e565b6040516102149190610eba565b60405180910390f35b6102256104d0565b60405161023291906110db565b60405180910390f35b6102436104fa565b6040516102509190610eba565b60405180910390f35b610273600480360381019061026e9190610f75565b61058c565b6040516102809190610fd0565b60405180910390f35b6102a3600480360381019061029e91906110f6565b6105af565b6040516102b09190610ffa565b60405180910390f35b6102d360048036038101906102ce919061109f565b610636565b005b6060600380546102e490611165565b80601f016020809104026020016040519081016040528092919081815260200182805461031090611165565b801561035d5780601f106103325761010080835404028352916020019161035d565b820191906000526020600020905b81548152906001019060200180831161034057829003601f168201915b5050505050905090565b6000806103726106bc565b905061037f8185856106c4565b600191505092915050565b6000600254905090565b60008061039f6106bc565b90506103ac8582856106d6565b6103b785858561076b565b60019150509392505050565b60006012905090565b6103d461085f565b6103de82826108e6565b5050565b60008060008373ffffffffffffffffffffffffffffffffffffffff1673ffffffffffffffffffffffffffffffffffffffff168152602001908152602001600020549050919050565b61043261085f565b61043c6000610968565b565b60606006805461044d90611165565b80601f016020809104026020016040519081016040528092919081815260200182805461047990611165565b80156104c65780601f1061049b576101008083540402835291602001916104c6565b820191906000526020600020905b8154815290600101906020018083116104a957829003601f168201915b5050505050905090565b6000600560009054906101000a900473ffffffffffffffffffffffffffffffffffffffff16905090565b60606004805461050990611165565b80601f016020809104026020016040519081016040528092919081815260200182805461053590611165565b80156105825780601f1061055757610100808354040283529160200191610582565b820191906000526020600020905b81548152906001019060200180831161056557829003601f168201915b5050505050905090565b6000806105976106bc565b90506105a481858561076b565b600191505092915050565b6000600160008473ffffffffffffffffffffffffffffffffffffffff1673ffffffffffffffffffffffffffffffffffffffff16815260200190815260200160002060008373ffffffffffffffffffffffffffffffffffffffff1673ffffffffffffffffffffffffffffffffffffffff16815260200190815260200160002054905092915050565b61063e61085f565b600073ffffffffffffffffffffffffffffffffffffffff168173ffffffffffffffffffffffffffffffffffffffff16036106b05760006040517f1e4fbdf70000000000000000000000000000000000000000000000000000000081526004016106a791906110db565b60405180910390fd5b6106b981610968565b50565b600033905090565b6106d18383836001610a2e565b505050565b60006106e284846105af565b90507fffffffffffffffffffffffffffffffffffffffffffffffffffffffffffffffff8110156107655781811015610755578281836040517ffb8f41b200000000000000000000000000000000000000000000000000000000815260040161074c93929190611196565b60405180910390fd5b61076484848484036000610a2e565b5b50505050565b600073ffffffffffffffffffffffffffffffffffffffff168373ffffffffffffffffffffffffffffffffffffffff16036107dd5760006040517f96c6fd1e0000000000000000000000000000000000000000000000000000000081526004016107d491906110db565b60405180910390fd5b600073ffffffffffffffffffffffffffffffffffffffff168273ffffffffffffffffffffffffffffffffffffffff160361084f5760006040517fec442f0500000000000000000000000000000000000000000000000000000000815260040161084691906110db565b60405180910390fd5b61085a838383610c05565b505050565b6108676106bc565b73ffffffffffffffffffffffffffffffffffffffff166108856104d0565b73ffffffffffffffffffffffffffffffffffffffff16146108e4576108a86106bc565b6040517f118cdaa70000000000000000000000000000000000000000000000000000000081526004016108db91906110db565b60405180910390fd5b565b600073ffffffffffffffffffffffffffffffffffffffff168273ffffffffffffffffffffffffffffffffffffffff16036109585760006040517fec442f0500000000000000000000000000000000000000000000000000000000815260040161094f91906110db565b60405180910390fd5b61096460008383610c05565b5050565b6000600560009054906101000a900473ffffffffffffffffffffffffffffffffffffffff16905081600560006101000a81548173ffffffffffffffffffffffffffffffffffffffff021916908373ffffffffffffffffffffffffffffffffffffffff1602179055508173ffffffffffffffffffffffffffffffffffffffff168173ffffffffffffffffffffffffffffffffffffffff167f8be0079c531659141344cd1fd0a4f28419497f9722a3daafe3b4186f6b6457e060405160405180910390a35050565b600073ffffffffffffffffffffffffffffffffffffffff168473ffffffffffffffffffffffffffffffffffffffff1603610aa05760006040517fe602df05000000000000000000000000000000000000000000000000000000008152600401610a9791906110db565b60405180910390fd5b600073ffffffffffffffffffffffffffffffffffffffff168373ffffffffffffffffffffffffffffffffffffffff1603610b125760006040517f94280d62000000000000000000000000000000000000000000000000000000008152600401610b0991906110db565b60405180910390fd5b81600160008673ffffffffffffffffffffffffffffffffffffffff1673ffffffffffffffffffffffffffffffffffffffff16815260200190815260200160002060008573ffffffffffffffffffffffffffffffffffffffff1673ffffffffffffffffffffffffffffffffffffffff168152602001908152602001600020819055508015610bff578273ffffffffffffffffffffffffffffffffffffffff168473ffffffffffffffffffffffffffffffffffffffff167f8c5be1e5ebec7d5bd14f71427d1e84f3dd0314c0f7b2291e5b200ac8c7c3b92584604051610bf69190610ffa565b60405180910390a35b50505050565b600073ffffffffffffffffffffffffffffffffffffffff168373ffffffffffffffffffffffffffffffffffffffff1603610c57578060026000828254610c4b91906111fc565b92505081905550610d2a565b60008060008573ffffffffffffffffffffffffffffffffffffffff1673ffffffffffffffffffffffffffffffffffffffff16815260200190815260200160002054905081811015610ce3578381836040517fe450d38c000000000000000000000000000000000000000000000000000000008152600401610cda93929190611196565b60405180910390fd5b8181036000808673ffffffffffffffffffffffffffffffffffffffff1673ffffffffffffffffffffffffffffffffffffffff16815260200190815260200160002081905550505b600073ffffffffffffffffffffffffffffffffffffffff168273ffffffffffffffffffffffffffffffffffffffff1603610d735780600260008282540392505081905550610dc0565b806000808473ffffffffffffffffffffffffffffffffffffffff1673ffffffffffffffffffffffffffffffffffffffff168152602001908152602001600020600082825401925050819055505b8173ffffffffffffffffffffffffffffffffffffffff168373ffffffffffffffffffffffffffffffffffffffff167fddf252ad1be2c89b69c2b068fc378daa952ba7f163c4a11628f55a4df523b3ef83604051610e1d9190610ffa565b60405180910390a3505050565b600081519050919050565b600082825260208201905092915050565b60005b83811015610e64578082015181840152602081019050610e49565b60008484015250505050565b6000601f19601f8301169050919050565b6000610e8c82610e2a565b610e968185610e35565b9350610ea6818560208601610e46565b610eaf81610e70565b840191505092915050565b60006020820190508181036000830152610ed48184610e81565b905092915050565b600080fd5b600073ffffffffffffffffffffffffffffffffffffffff82169050919050565b6000610f0c82610ee1565b9050919050565b610f1c81610f01565b8114610f2757600080fd5b50565b600081359050610f3981610f13565b92915050565b6000819050919050565b610f5281610f3f565b8114610f5d57600080fd5b50565b600081359050610f6f81610f49565b92915050565b60008060408385031215610f8c57610f8b610edc565b5b6000610f9a85828601610f2a565b9250506020610fab85828601610f60565b9150509250929050565b60008115159050919050565b610fca81610fb5565b82525050565b6000602082019050610fe56000830184610fc1565b92915050565b610ff481610f3f565b82525050565b600060208201905061100f6000830184610feb565b92915050565b60008060006060848603121561102e5761102d610edc565b5b600061103c86828701610f2a565b935050602061104d86828701610f2a565b925050604061105e86828701610f60565b9150509250925092565b600060ff82169050919050565b61107e81611068565b82525050565b60006020820190506110996000830184611075565b92915050565b6000602082840312156110b5576110b4610edc565b5b60006110c384828501610f2a565b91505092915050565b6110d581610f01565b82525050565b60006020820190506110f060008301846110cc565b92915050565b6000806040838503121561110d5761110c610edc565b5b600061111b85828601610f2a565b925050602061112c85828601610f2a565b9150509250929050565b7f4e487b7100000000000000000000000000000000000000000000000000000000600052602260045260246000fd5b6000600282049050600182168061117d57607f821691505b6020821081036111905761118f611136565b5b50919050565b60006060820190506111ab60008301866110cc565b6111b86020830185610feb565b6111c56040830184610feb565b949350505050565b7f4e487b7100000000000000000000000000000000000000000000000000000000600052601160045260246000fd5b600061120782610f3f565b915061121283610f3f565b925082820190508082111561122a576112296111cd565b5b9291505056fea264697066735822122090beea1cbd90a7c55776a0e7103a9fda7f0055f7af3c0dd4936a4eb03e6a4fd564736f6c63430008140033",
  "linkReferences": {},
  "deployedLinkReferences": {}
}